:100000000C9441000C945E000C945E000C945E0015
:100010000C945E000C945E000C945E000C945E00E8
:100020000C945E000C945E000C945E000C945E00D8
:100030000C945E000C945E000C945E000C945E00C8
:100040000C945E000C945E000C945E000C945E00B8
:100050000C945E000C945E000C945E000C945E00A8
:100060000C945E000C945E000C945E000C945E0098
:100070000C945E008B0179017C017F018201850176
:10008000880111241FBECFEFD4E0DEBFCDBF11E049
:10009000A0E0B1E0E6E2FAE002C005900D92AE3FCA
:1000A000B107D9F722E0AEEFB1E001C01D92A13156
:1000B000B207E1F70E9448040C9411050C9400006B
:1000C000DF92EF92FF920F931F93CF93DF93CDB701
:1000D000DEB72E970FB6F894DEBF0FBECDBFCE01B0
:1000E00001960E941B028E010F5F1F4F7E018FE061
:1000F000E80EF11CF801D0800E946603D81208C0F7
:10010000F801D1800E946C03D81202C00E94E7035C
:100110000E5F1F4F0E151F0569F72E960FB6F89448
:10012000DEBF0FBECDBFDF91CF911F910F91FF902A
:10013000EF90DF900895CF930E946F03C82F0E9425
:10014000690340E06C2F0E94CB010E946603C82F18
:100150000E940802C8130FC00E946C03C82F0E949F
:100160000E02C81308C00E94EB030E9414020597F8
:1001700010F00E94E7030E946C03C82F0E946603E0
:100180006C2F0E94B20181110E94E7030E946C0350
:10019000C82F0E94660341E06C2FCF910C94CB01D5
:1001A000E1E6F0E080E880831082A89584B7877F3D
:1001B00084BFE0E6F0E0808188618083108208954A
:1001C0009C01FC01FF2784A1832B84A395A1892F87
:1001D000832B85A381E00895CF93DF93C6EED1E012
:1001E000899199910E94E00081E0C43FD807C1F74E
:1001F00083E090E40E94E00080E090E80E94E0004C
:1002000083E090E10E94E00083E090E80E94E0003B
:1002100083E090E2DF91CF910C94E000E091FE0149
:10022000F0E0EE0FFF1FE452FE4F20813181F90113
:10023000FF2795A1932B95A3E6EEF1E097E02081AF
:100240003181D901BB2795962C91959780FF03C0EA
:100250003095232301C0232B95962C93869591509E
:1002600032969111ECCFE62FF0E0EE0FFF1FE45233
:10027000FE4F80819181FC01FF2785A19095892304
:1002800085A36093FE010895FB019C012B5F3F4F06
:10029000DC014D91CD014193A217B307C9F7089531
:1002A0000C94EC0066EA71E083ED91E00E94440159
:1002B0006BE871E08EEC91E00E94440160E771E030
:1002C00089EC91E00E94440165E571E084EC91E0E5
:1002D0000E9444016AE371E08FEB91E00C944401C9
:1002E000019787309105B8F4865C9F4FFC010C9410
:1002F000E90489E891E011C08EE691E00EC083E543
:1003000091E00BC088E391E008C08DE191E005C069
:1003100082E091E002C084EA91E090930101809331
:10032000000108950E94EC006091FF01E09100013E
:10033000F0910101E60FF11D82810E940E01809172
:10034000FF018F5F853018F48093FF0108951092AC
:10035000FF010895853018F481E0673008F080E0EF
:1003600081700895853018F491E0673008F090E0CE
:1003700090FF0FC0E0910001F0910101E80FF11D25
:10038000828190E002C0959587956A95E2F7817029
:10039000089580E00895853018F491E0673008F002
:1003A00090E090FF17C02091000130910101E82FEB
:1003B000F0E0E20FF31F81E090E001C0880F6A9542
:1003C000EAF7442319F09281892B03C0809592812A
:1003D000892382830895CF93DF93C82FD62F0E945D
:1003E000B201882311F040E001C041E06D2F8C2F55
:1003F000DF91CF910C94CB01E0910001F0910101CC
:1004000087810895E0910001F091010180850895B0
:10041000E0910001F091010181850895E0910001D2
:10042000F091010182850895E0910001F0910101B0
:100430008081918108956F927F928F929F92AF9267
:10044000BF92CF92DF92EF92FF920F931F93CF93C1
:10045000DF93CDB7DEB72E970FB6F894DEBF0FBE91
:10046000CDBF5C018E010F5F1F4FC12CD12C380115
:1004700039E0932EE0900001F0900101C601880F51
:10048000991FE80EF91EF701648583850E94EB0130
:10049000F7018484F384682D8F2D0E94B201F80146
:1004A000882319F0F082818202C090829182FFEF4E
:1004B000CF1ADF0A0E5F1F4F87E0C816D104D1F6AE
:1004C0008EE0F301D50101900D928A95E1F7C50107
:1004D0002E960FB6F894DEBF0FBECDBFDF91CF9141
:1004E0001F910F91FF90EF90DF90CF90BF90AF9052
:1004F0009F908F907F906F900895E0910001F09110
:100500000101818D928D08956230710519F170F4A9
:100510006130710559F5FC01FF2724A1392F309571
:10052000922F932394A385A183231DC0633071056B
:1005300041F064307105D1F4FC01FF2784A1892BBF
:100540000FC0FC01FF2784A1892B84A385A190956E
:10055000892309C0FC01FF2784A1292F209582232C
:1005600084A385A1892B85A381E0089580E0089567
:10057000E82FF0E0EE0FFF1FE050FE4F8081882350
:1005800021F0918181E0892702C080E090E08170B4
:100590000895E82FF0E0EE0FFF1FE050FE4F80813E
:1005A000811102C0818102C080E090E081700895D5
:1005B000E82FF0E0EE0FFF1FE050FE4F808108951E
:1005C000E82FF0E0EE0FFF1FE050FE4F908181E03A
:1005D000892708957F928F929F92AF92BF92CF9278
:1005E000DF92EF92FF920F931F93CF93DF93C0E0C0
:1005F000D2E054EFC52E51E0D52E66E0762E8881EC
:100600008983F601019111916F015801BB24F50115
:1006100024A1E12EFF2485A190E08E219F2130E0CE
:100620002E213F21232B31F0892B51F433E0832EEF
:10063000912C0DC0892B41F488248394912C07C000
:1006400094E0892E912C03C082E0882E912C64E0E6
:1006500070E0C8010E94840262E070E0C8010E945C
:100660008402872D8A95F1F7F50183A190E0E822B5
:10067000F92281E0EF2809F080E08883B401C80105
:100680000E9484022296F2E0CA30DF0709F0B7CF59
:10069000DF91CF911F910F91FF90EF90DF90CF905E
:1006A000BF90AF909F908F907F9008950895CF93C3
:1006B000DF93D82FC62F0E945603E8EDF1E0D083D8
:1006C000C183D283C383DF91CF9108958091DA01F2
:1006D00008958091D80108958091DB01089580915B
:1006E000D901089591E0853008F090E0892F0895B0
:1006F00091E0873008F090E0892F0895853060F40C
:100700009091DA01891741F09093D8019091DB0123
:100710009093D9018093DA010895873060F4909125
:10072000DB01891741F02091DA012093D8019093E1
:10073000D9018093DB0108958091DB0181500C94F5
:100740008D038091DB018F5F0C948D038091DA0122
:1007500081500C947E038091DA018F5F0C947E03AC
:10076000CF930E94EA0280E00E94B802882321F021
:100770000E949C03C1E001C0C0E082E00E94B80278
:10078000882319F00E94A103C1E081E00E94B80211
:10079000882319F00E94AB03C1E083E00E94B802F5
:1007A000882319F00E94A603C1E08C2FCF910895F1
:1007B000EAE0F2E0108211821282089580910A022A
:1007C000089580910B02089580910C02089581E0B4
:1007D00080930A02089581E080930B02089581E0DE
:1007E00080930C02089557985F984F9B03C081E057
:1007F00080930C0208951092800084E08093810021
:100800001092850010928400089580918400909148
:1008100085000895AC0180918400909185009C0131
:10082000241B350B283E3340B0F7089520918400F7
:1008300030918500820F931F0C940A04CF93DF93AD
:10084000EC010E94FB039E0140E050E062E17AE788
:1008500080E090E00E94CA043093100220930F02BF
:10086000DF91CF91089580910D0290910E020E9428
:100870000A0420910D0230910E0280910F02909196
:100880001002820F931F90930E0280930D02089521
:100890000E94D00084EF91E00E941E040E9450014B
:1008A0000E94520181E090E00E9470010E940202C9
:1008B000C82F0E94FC016C2F0E9457030E94D8038E
:1008C00000E010E0C0E0D0E00E9433040E94E403A6
:1008D000882391F00E94D8030E9450010E94520187
:1008E00081E090E00E9470010E940202F82E0E94B6
:1008F000FC016F2D0E9457030E94DE03882389F0BC
:100900000E94E103811103C086E090E006C00E94CE
:10091000E103882321F087E090E00E9470010E94AB
:10092000F3030E94DE03811113C00E94E1038823B8
:1009300079F00E94140201960E9470010E94020246
:10094000F82E0E94FC016F2D0E9457030E94D803CD
:100950000E9450010E9492010E94DE038111B4CFD7
:100960000E94F3030F5F1F4F0E947D0208171907B3
:1009700020F00E94600000E010E02196C832D1050E
:1009800008F4A2CF0E94B003882309F49BCF0E94F1
:100990009B0098CF052E97FB1EF400940E94E10463
:1009A00057FD07D00E94EF0407FC03D04EF40C94CF
:1009B000E10450954095309521953F4F4F4F5F4F43
:1009C000089590958095709561957F4F8F4F9F4FBB
:1009D0000895EE0FFF1F0590F491E02D0994A1E218
:1009E0001A2EAA1BBB1BFD010DC0AA1FBB1FEE1FA9
:1009F000FF1FA217B307E407F50720F0A21BB30BF4
:100A0000E40BF50B661F771F881F991F1A9469F76F
:100A100060957095809590959B01AC01BD01CF01CB
:060A20000895F894FFCFD9
:100A2600A40107000102442810000000000909097A
:100A36000909090909090909090909F40106002230
:100A46001408142200000000090909090909090906
:100A5600090909090909F4010500032B682B63023A
:100A66000602000006000300020202030404040951
:100A760009C8000400013D403D01020602000001D4
:100A8600020402030201040109090909C80003005E
:100A96007F015C0D7F0206020001040102030303CD
:100AA60002090909090909C80002001707500717B2
:100AB6000206020000040104020403040404020105
:100AC60002025E0101007F1455117F02060100013A
:100AD60004030209090909090909090909F40103B5
:100AE6002B682B63013D403D017F015C0D7F17079D
:100AF6005007177F1455117F020602060340008037
:100B060003100380032000400020001000080004AA
:0E0B1600000200010380034003200080031052
:00000001FF
