:100000000C943A000C9457000C9457000C94570031
:100010000C9457000C9457000C9457000C94570004
:100020000C9457000C9457000C9457000C945700F4
:100030000C9457000C9457000C9457000C945700E4
:100040000C9457000C9457000C9457000C945700D4
:100050000C9457000C9457000C9457000C945700C4
:100060000C9457000C9457000C9457000C945700B4
:100070000C94570011241FBECFEFD4E0DEBFCDBFDC
:1000800011E0A0E0B1E0EAEDF7E002C005900D92CA
:10009000AA34B107D9F721E0AAE4B1E001C01D926A
:1000A000AC35B207E1F70E941E030C94EB030C94ED
:1000B0000000E1E6F0E080E880831082A89584B734
:1000C000877F84BFE0E6F0E08081886180831082D2
:1000D00008959C01FC01FF2784A1832B84A395A193
:1000E000892F832B85A381E00895CF93DF93C1E30C
:1000F000D1E0899199910E94690081E0CF33D807BE
:10010000C1F783E090E40E94690080E090E80E94DB
:10011000690083E090E10E94690083E090E80E941A
:10012000690083E090E2DF91CF910C946900E09147
:100130004A01F0E0EE0FFF1FE95DFE4F20813181A3
:10014000F901FF2795A1932B95A3E1E3F1E097E057
:1001500020813181D901BB2795962C91959780FFFD
:1001600003C03095232301C0232B95962C938695AD
:10017000915032969111ECCFE62FF0E0EE0FFF1F79
:10018000E95DFE4F80819181FC01FF2785A190955B
:10019000892385A360934A0108950C9475008230E9
:1001A000910529F0039731F482E091E005C08DE0DC
:1001B00091E002C088E191E09093010180930001F9
:1001C00008950E94750060914B01E0910001F0914B
:1001D0000101E60FF11D82810E94970080914B0181
:1001E0008F5F853018F480934B01089510924B0176
:1001F0000895853018F481E0673008F080E0817060
:100200000895853018F491E0673008F090E090FF91
:100210000FC0E0910001F0910101E80FF11D828112
:1002200090E002C0959587956A95E2F781700895F0
:1002300080E00895853018F491E0673008F090E090
:1002400090FF17C02091000130910101E82FF0E0EC
:10025000E20FF31F81E090E001C0880F6A95EAF792
:10026000442319F09281892B03C0809592818923C0
:1002700082830895CF93DF93C82FD62F0E94010168
:10028000882311F040E001C041E06D2F8C2FDF91F9
:10029000CF910C941A01E0910001F0910101878146
:1002A0000895E0910001F091010180850895E091A9
:1002B0000001F091010181850895E0910001F09124
:1002C000010182850895E0910001F0910101808192
:1002D000918108956230710519F170F461307105F2
:1002E00059F5FC01FF2724A1392F3095922F932334
:1002F00094A385A183231DC06330710541F0643050
:100300007105D1F4FC01FF2784A1892B0FC0FC01EA
:10031000FF2784A1892B84A385A19095892309C0F7
:10032000FC01FF2784A1292F2095822384A385A186
:10033000892B85A381E0089580E00895E82FF0E0FF
:10034000EE0FFF1FE45BFE4F8081882321F0918137
:1003500081E0892702C080E090E081700895E82F55
:10036000F0E0EE0FFF1FE45BFE4F8081811102C0C1
:10037000818102C080E090E081700895E82FF0E074
:10038000EE0FFF1FE45BFE4F80810895E82FF0E041
:10039000EE0FFF1FE45BFE4F908181E089270895F7
:1003A0007F928F929F92AF92BF92CF92DF92EF9205
:1003B000FF920F931F93CF93DF93CCE4D1E05FE3E1
:1003C000C52E51E0D52E66E0762E88818983F60110
:1003D000019111916F015801BB24F50124A1E12E77
:1003E000FF2485A190E08E219F2130E02E213F2126
:1003F000232B31F0892B51F433E0832E912C0DC047
:10040000892B41F488248394912C07C094E0892E91
:10041000912C03C082E0882E912C64E070E0C8012A
:100420000E946A0162E070E0C8010E946A01872DA3
:100430008A95F1F7F50183A190E0E822F92281E0A5
:10044000EF2809F080E08883B401C8010E946A01A6
:100450002296F1E0C635DF0709F0B7CFDF91CF91E3
:100460001F910F91FF90EF90DF90CF90BF90AF90D2
:100470009F908F907F9008950895CF93DF93D82F0A
:10048000C62F0E943C02E3E2F1E0D083C183D28315
:10049000C383DF91CF9108958091250108958091C4
:1004A00023010895809126010895809124010895E3
:1004B00091E0853008F090E0892F089591E0873031
:1004C00008F090E0892F0895853060F4909125011F
:1004D000891741F090932301909126019093240174
:1004E000809325010895873060F490912601891743
:1004F00041F02091250120932301909324018093C2
:10050000260108958091260181500C9473028091F8
:1005100026018F5F0C9473028091250181500C9409
:100520006402809125018F5F0C946402CF930E9436
:10053000D00180E00E949E01882321F00E94820267
:10054000C1E001C0C0E082E00E949E01882319F052
:100550000E948702C1E081E00E949E01882319F079
:100560000E949102C1E083E00E949E01882319F05D
:100570000E948C02C1E08C2FCF910895E6E5F1E056
:10058000108211820895809156010895809157013B
:10059000089581E080935601089581E0809357018A
:1005A00008951092800084E080938100109285006D
:1005B00010928400089580918400909185000895A0
:1005C000AC0180918400909185009C01241B350B27
:1005D000283E3340B0F70895209184003091850083
:1005E000820F931F0C94E002CF93DF93EC010E94E3
:1005F000D1029E0140E050E062E17AE780E090E0C5
:100600000E94AA0330935B0120935A01DF91CF919E
:10061000089580915801909159010E94E002209123
:1006200058013091590180915A0190915B01820FDC
:10063000931F909359018093580108950E94590087
:1006400084EF91E00E94F4020E94CD0081E090E0EE
:100650000E94CF000E945101C82F0E944B016C2FB5
:100660000E943D020E94BE0200E010E0C0E0D0E027
:100670000E94C302811165C00E94C6028823B9F09E
:100680000E94590084EF91E00E94F4020E94CD0084
:100690000E94630101960E94CF000E945101F82E32
:1006A0000E944B016F2D0E943D020E94BE020E94DB
:1006B00009030E94E1000E946301019761F40F5F4A
:1006C0001F4F043F81E0180730F063E081E00E9493
:1006D0003A0100E010E02196C832D10548F20E94AC
:1006E0009602882319F20E945502C82F0E944F02D9
:1006F00040E06C2F0E941A010E944C02C82F0E94F9
:100700005701C81309C00E945202C82F0E945D0100
:10071000C81302C00E94CD020E945202C82F0E943C
:100720004C026C2F0E94010181110E94C9020E949B
:100730005202C82F0E944C0241E06C2F0E941A0105
:1007400095CF0E94CD0083E090E00E94CF000E94F0
:10075000E100FDCF052E97FB1EF400940E94C1031B
:1007600057FD07D00E94C90307FC03D04EF40C9438
:10077000C10350954095309521953F4F4F4F5F4FA6
:10078000089590958095709561957F4F8F4F9F4FFD
:100790000895A1E21A2EAA1BBB1BFD010DC0AA1FC2
:1007A000BB1FEE1FFF1FA217B307E407F50720F0DA
:1007B000A21BB30BE40BF50B661F771F881F991F55
:1007C0001A9469F760957095809590959B01AC019E
:0A07D000BD01CF010895F894FFCF9A
:1007DA0018010300304640463000000000020008BD
:1007EA00080049080306040001007F0415117F026E
:1007FA00060100020602060340008003100380037C
:10080A00200040002000100008000400020001033C
:0A081A00800340032000800310005B
:00000001FF
