:100000000C943A000C9457000C9457000C94570031
:100010000C9457000C9457000C9457000C94570004
:100020000C9457000C9457000C9457000C945700F4
:100030000C9457000C9457000C9457000C945700E4
:100040000C9457000C9457000C9457000C945700D4
:100050000C9457000C9457000C9457000C945700C4
:100060000C9457000C9457000C9457000C945700B4
:100070000C94570011241FBECFEFD4E0DEBFCDBFDC
:1000800012E0A0E0B1E0EEE1F9E102C005900D92CE
:10009000A031B107D9F722E0A0E1B2E001C01D9282
:1000A000AF35B207E1F70E9455090C948D0C0C9402
:1000B0000000FC01962F842F65E00E94710B890FD0
:1000C000E80FF11D208308950895CF93DF93D62F75
:1000D000C72FE9EEF1E09191992321F0DB019D9387
:1000E000BD01F9CF40E00E9419090E946D078D2FD4
:1000F0009C2FDF91CF910C946908FC017183608380
:10010000128213821482158281E00895FC0180819D
:1001100091810895FC0112821382648381E0089525
:10012000FC01A081B181109709F440C082818F5FEA
:1001300082839C91891728F1128285818F5F883094
:1001400010F485831EC0158283818F5F838312968E
:100150009C9112978917A8F0138284818F5F848302
:1001600015969C911597911109C014969C9114971E
:10017000891738F01182108281E00895891708F0FC
:100180001482928111968C911197981760F4938143
:1001900013968C911397981730F481E0248114966C
:1001A0009C91291708F080E08170089580E00895FF
:1001B000FC0111821082128213821482158208952A
:1001C000CF93DF939B01A0E1B2E09E96ED91FC916D
:1001D0009F97EC0149816881D0968D919C91D19730
:1001E000DF91CF910994CF93DF93EC0120911C0212
:1001F00030E040E0A42F042E000CBB0BA217B30785
:10020000C4F4CD0163E070E00E947A0BFC01E05F72
:10021000FD4F8281882359F0EC17FD0741F0908152
:100220008881981304C091818981981729F04F5FC4
:10023000E1CF80E090E001C0CF01DF91CF91089540
:10024000CF93C82F60E070E082E392E00E94E0006C
:10025000809132028C0F9091340289172CF487FF21
:1002600004C08FEF890F01C080E08093320261E00B
:1002700070E082E392E0CF910C94E000E0914202C2
:10028000F0914302309731F0BC018091440290918B
:10029000450209940895DB01FC011282E0E1F2E0DD
:1002A00081A5815081A786A18F5F86A312961C929B
:1002B000129760E070E0CD010E94E00080E090E0E5
:1002C0000C943E0180933D020895E0E1F2E0682F36
:1002D00070E082A593A50E94970B768765870895A5
:1002E000E0E1F2E0682F70E082A593A50E94970BF1
:1002F000778F668F089580933C020895853008F0CB
:1003000084E080931C020895853008F084E0809397
:100310002D0208958093460208950F931F93CF9363
:10032000DF93C0E1D2E06CA34DA33FA72EA719AB8A
:1003300008AB1FAA9BA78AA71BAA1AAAE6E4F2E0A9
:1003400080818E7F8D7F808383E08C8782E08D8F9C
:1003500080E10E94700182E00E94650184E08CA728
:1003600085E08DA7DF91CF911F910F910895E0E176
:10037000F2E093AB82AB75AB64AB08958F929F9222
:10038000AF92BF92CF92DF92EF92FF920F931F93A3
:10039000CF93DF9380913002909131020196909338
:1003A00031028093300220912E0230912F02821769
:1003B000930730F4E0904702EE2009F4BFC14AC031
:1003C000109231021092300210E0E12E012E000C4A
:1003D000FF0880912D0290E0E816F9065CF7C7014E
:1003E00063E070E00E947A0BFC01E05FFD4F23891F
:1003F000222371F1EC01CF5DDD4F918980913202B2
:10040000981305C0928980913302981729F060E013
:1004100070E0CE010E94E000C70163E070E00E943E
:100420007A0BFC01E05FFD4F92899150928B97FD12
:100430000EC063E070E0CE010E94E000CE010E9499
:10044000F300009729F0BE010E944B01F7CF1A82FA
:100450001F5FBBCF80911F02909120020196909365
:10046000200280931F0220911D0230911E028217EC
:10047000930708F463C11092200210921F02C0E09B
:100480002C2F0C2E000C330B80911C0290E02817AF
:100490003907A4F4C90163E070E00E947A0B805F21
:1004A0009D4FDC0112968C911297882329F060E011
:1004B00070E0CD010E94E000CF5FE2CFF12CCF2DA4
:1004C0000F2C000CDD0B80911C0290E0C817D9079F
:1004D0000CF0CEC0CE0163E070E00E947A0B8C017C
:1004E000005F1D4FF8018281882309F4BFC081811C
:1004F0008F5F81830E944E0C8170382F330F3150F3
:10050000E0914602E1FF13C040913202042E000C3C
:10051000550BD8012C91832F032E000C990B820FC1
:10052000911D27FD9A954817590709F43195CE0179
:1005300063E070E00E947A0BDC01A05FBD4F2C915C
:10054000230F2C9327FD04C0809134022817ECF070
:10055000CE0163E070E00E947A0BE0FF10C0FC0166
:10056000E05FFD4F022E000C330B37FF03C03195C7
:100570002195310990913402921B908306C0805FCF
:100580009D4F330F231BFC012083CE0163E070E0FD
:100590000E947A0B8C01005F1D4FD80111969C912F
:1005A0008091350298172CF462E070E0C8010E9437
:1005B000E000CE0163E070E00E947A0B805F9D4F07
:1005C000FC012181422F022E000C550B8091350237
:1005D000082E000C990B019748175907A4F5E091D4
:1005E0002D028E2E912C40E0A42F042E000CBB0B6C
:1005F000A815B905DCF5CD0163E070E00E947A0B27
:10060000FC01E05FFD4F5F0123892223D1F09C01B3
:100610002F5D3D4F02171307A1F0CE0163E070E09C
:100620000E947A0B805F9D4F6C019189F601808159
:10063000981307C0D50152969C918181981709F4AF
:1006400078C04F5FD1CF80913302821363C0809115
:1006500037028F5F8093370290913D02891710F027
:100660001092470281E090E00E943E01F39427CF70
:1006700080913902882319F0C0913C0201C0C2E088
:100680000E944E0C6C2F70E00E94AB0B892B09F07E
:1006900055C020911C0230E040E0042F042E000CD5
:1006A000110B021713070CF049C0C80163E070E09A
:1006B0000E947A0BEC01C05FDD4F8A81882311F024
:1006C0004F5FEBCF1982FF24F3940E944E0C9C01E4
:1006D000C80163E070E00E947A0BFC01E05FFD4F0F
:1006E00060913402062E000C770BC9010E94AB0BFF
:1006F0008083F282CE010E94F300892B31F7809132
:1007000039028F5F8093390262E070E0CE010E946F
:10071000E00014C0D80112961C92809139028150D9
:100720008093390261E070E082E392E00E94E00091
:100730009DCFB901C8010E944B0151CF8E2DDF9191
:10074000CF911F910F91FF90EF90DF90CF90BF90CE
:10075000AF909F908F90089581E00C9420018FEFCF
:100760000C94200120912D0230E040E0E42F042E73
:10077000000CFF0BE217F3073CF5CF0163E070E0DC
:100780000E947A0BDC01A05FBD4F53968C9153976A
:10079000882311F04F5FEACF8091320290913302AB
:1007A00052969C938E935197CF0163E070E00E9424
:1007B0007A0B805F9D4F21E0FC01238B80913802F2
:1007C0008F5F80933802089508950F931F93CF93FE
:1007D000DF9300D0CDB7DEB7109231021092300215
:1007E0001092200210921F0220912D0230E040E072
:1007F000842F042E000C990B8217930754F463E0A6
:1008000070E00E947A0B805F9D4FFC01138A4F5F5E
:10081000EFCF20911C0230E040E0842F042E000C2A
:10082000990B8217930754F463E070E00E947A0BEF
:10083000805F9D4FFC0112824F5FEFCF00E08091FF
:10084000340208178CF410E080913502181754F424
:1008500009831A8360E070E0CE0101960E94E000F7
:100860001F5FF2CF0F5FEBCF87FD8F5F85958E7F88
:10087000809332028091350281508093330261E08F
:1008800070E082E392E00E94E00010923902109240
:100890003602109237021092380281E080934702AC
:1008A0000F900F90DF91CF911F910F91089580913C
:1008B000360208958091380208959B01240F351F58
:1008C000FB01861B970BBC016E0F7F1FE217F3071E
:1008D00041F0F999FECF72BD61BDF89A60B56193A0
:1008E000F2CFCA0108959B01240F351FFB01861B1F
:1008F000970BBC016E0F7F1FE217F30749F0A19120
:10090000F999FECF72BD61BDA0BDFA9AF99AF1CFF7
:10091000CA010895E1E6F0E080E880831082A8959E
:1009200084B7877F84BFE0E6F0E0808188618083C0
:10093000108208951092800084E0809381001092CC
:100940008500109284000895809184009091850024
:100950000895AC0180918400909185009C01241B36
:10096000350B283E3340B0F7089520918400309134
:100970008500820F931F0C94A904853098F467308A
:1009800088F421E030E001C0220F6A95EAF7E82FF1
:10099000F0E0E75BFD4F922F909580818923411114
:1009A000822B80830895853080F4673070F421E0D5
:1009B00030E001C0220F6A95EAF7E82FF0E0E75B2C
:1009C000FD4F8081282381E009F480E00895609143
:1009D0004802E62FF0E0E75BFD4F80810E94400572
:1009E000809148028F5F853018F480934802089503
:1009F000109248020895E9E4F2E010821182128216
:100A00001382148208950E941E050C94FB04811128
:100A100005C0662311F0429A0895429808953A9AC3
:100A2000429A08959C01FC01FF2784A1832B84A393
:100A300095A1892F832B85A381E00895CF93DF9320
:100A4000CDECD1E0899199910E94120581E0CB3DD6
:100A5000D807C1F783E090E40E94120580E090E897
:100A60000E94120583E090E10E94120583E090E865
:100A70000E94120583E090E2DF91CF910C94120561
:100A8000E0914E02F0E0EE0FFF1FED53FE4F20818C
:100A90003181F901FF2795A1932B95A3EDECF1E0AE
:100AA00097E020813181D901BB2795962C919597AC
:100AB00080FF03C03095232301C0232B95962C93F0
:100AC0008695915032969111ECCFE62FF0E0EE0F23
:100AD000FF1FED53FE4F80819181FC01FF2785A10F
:100AE0009095892385A360934E0208956230710525
:100AF00019F170F46130710559F5FC01FF2724A14B
:100B0000392F3095922F932394A385A183231DC061
:100B10006330710541F064307105D1F4FC01FF27A9
:100B200084A1892B0FC0FC01FF2784A1892B84A3FA
:100B300085A19095892309C0FC01FF2784A1292F55
:100B40002095822384A385A1892B85A381E0089524
:100B500080E00895E82FF0E0EE0FFF1FE15BFD4F0E
:100B60008081882321F0918181E0892702C080E083
:100B700090E081700895E82FF0E0EE0FFF1FE15B39
:100B8000FD4F8081811102C0818102C080E090E030
:100B900081700895E82FF0E0EE0FFF1FE15BFD4F3D
:100BA00080810895E82FF0E0EE0FFF1FE15BFD4F1D
:100BB000908181E0892708957F928F929F92AF92D2
:100BC000BF92CF92DF92EF92FF920F931F93CF933A
:100BD000DF93CFE4D2E05BEDC52E51E0D52E66E089
:100BE000762E88818983F601019111916F01580158
:100BF000BB24F50124A1E12EFF2485A190E08E21E4
:100C00009F2130E02E213F21232B31F0892B51F4FD
:100C100033E0832E912C0DC0892B41F488248394DA
:100C2000912C07C094E0892E912C03C082E0882E7D
:100C3000912C64E070E0C8010E94760562E070E0EB
:100C4000C8010E947605872D8A95F1F7F50183A1E9
:100C500090E0E822F92281E0EF2809F080E0888323
:100C6000B401C8010E9476052296F2E0C935DF077B
:100C700009F0B7CFDF91CF911F910F91FF90EF90C7
:100C8000DF90CF90BF90AF909F908F907F9008950E
:100C90000895009789F0FC012381621B67FD09C05C
:100CA000062E000C770B248130E081E06217730779
:100CB0000CF080E08170089580E00895CF93DF9379
:100CC000FC01892B79F18181481760F59281291700
:100CD00048F59381A62FA91BA7FD24C00A2E000C5E
:100CE000BB0BC481D0E0AC17BD07E4F4622F0E94B7
:100CF000710B480F858190E0BD010E947A0B06962A
:100D0000242F269526952695E80FF91FE20FF11D51
:100D1000808190E0477002C0959587954A95E2F7EB
:100D2000817001C080E0DF91CF910895CF93DF9370
:100D3000EC010E949A049E0140E050E062E17AE7F3
:100D400080E090E00E94BF0B30935C0220935B0236
:100D5000DF91CF9108958091590290915A020E949B
:100D6000A9042091590230915A0280915B0290911E
:100D70005C02820F931F90935A0280935902089548
:100D8000692F0C94D30441E0611101C040E0692F48
:100D90000C94BD040C94C3065F926F927F928F9265
:100DA0009F92AF92BF92CF92DF92EF92FF920F93FA
:100DB0001F93CF93DF93562E872E942E5C01E62E41
:100DC000F72EC62F660FDD0BC81BD10987FDD39503
:100DD000072F770F110B091B110997FD1395D7FFEB
:100DE00003C077247A9402C07724739417FF03C05A
:100DF00066246A9402C066246394D7FF03C0D19529
:100E0000C195D10917FF03C0119501951109C017AC
:100E1000D107A4F06E01D594C794F92EA51411F151
:100E2000692D8A2D9F2D0E94C306C01AD10AD7FEB4
:100E300003C0CC0EDD1EF60CA70CF0CF6801D594D4
:100E4000C794E82EB81471F0692D8E2D9B2D0E9449
:100E5000C306CC1ADD0AD7FE03C0C00ED11EE70CB4
:100E6000B60CF0CF692DC701DF91CF911F910F9183
:100E7000FF90EF90DF90CF90BF90AF909F908F90BA
:100E80007F906F905F900C94C306FF920F931F9317
:100E9000CF93DF93D82FF92E162FC72F042F792F3A
:100EA0000E94CC06402F6D2F7C2F8D2F9F2D0E94EE
:100EB000CC06402F612F7C2F812F9F2D0E94CC06C6
:100EC000402F612F7C2F8D2F9C2F0E94CC06DF910D
:100ED000CF911F910F91FF9008950E94FB04E2E1D2
:100EE000F1E0118A14860895DF92EF92FF920F933A
:100EF0001F93CF93DF93D82E7B01162F0F2D809158
:100F0000140190911501D0E0019799F50F2D0D1B5B
:100F1000E0911A01F0911B018181C0E0D817B8F46B
:100F200080911A0190911B01FC012281C21768F483
:100F30002C2F4D2F6D2D0E945E06682F8E2D8C0F4D
:100F4000902F0E94C306CF5FEBCFDF5FDFCFE09132
:100F50001A01F0911B018281C81740F460E08E2DC8
:100F60008C0F902F0E94C306CF5FF1CF015030C08D
:100F7000DF5F1E2D1D0FE0911A01F0911B01818191
:100F8000C0E0D817A8F480911A0190911B01FC01D0
:100F90002281C21768F72C2F4D2F6D2D0E945E06FF
:100FA000682F812F9F2D9C0F0E94C306CF5FEBCF30
:100FB000E0911A01F0911B018281C81740F460E0B2
:100FC000812F9F2D9C0F0E94C306CF5FF1CF1F5F23
:100FD000812F902FDF91CF911F910F91FF90EF9074
:100FE000DF9008950F931F93CF938C01C0E0F80119
:100FF00081918F01882341F00E947407BC01CF5F6B
:10100000853014F477FFF3CF8C2FCF911F910F9180
:1010100008950F931F93CF93DF9310921E01409377
:101020001F011092220100911A0110911B0101155C
:10103000110509F449C09B01EC01F801818160911F
:1010400018017091190190E00E947A0BBC01809107
:101050001C0190911D010E94970BCB016AE070E08A
:101060000E947A0B90932101809320013093170105
:101070002093160140E250E0BE0183E291E00E941D
:10108000650C80911201909113010197E9F4FE0122
:1010900001900020E9F73197BF016C1B7D0BF8012F
:1010A00081818F5F0E94710B8150209114013091DA
:1010B00015012130310511F095E001C097E0981736
:1010C00018F48EEF80932201DF91CF911F910F9141
:1010D000089520911401309115012130310511F04E
:1010E00070E001C076E04FEF60E00E9409080895CB
:1010F00090E0909319018093180108959093130143
:10110000809312010895909315018093140108951E
:1011100090931B0180931A01089580915D02909134
:101120005E02019690935E0280935D022091200101
:10113000309121018217930708F469C010925E0272
:1011400010925D02E0911E01F0E0EE5EFE4F81899B
:1011500081110AC080911F01823008F458C081506B
:1011600080931F0110921E0180911E0190E0FC01EE
:10117000EE5EFE4F2189222309F449C040911201FD
:1011800050911301209122014115510521F0413068
:10119000510599F024C0211122C06091160170916F
:1011A00017018D5D9E4F0E94F20790E0019790918C
:1011B0001E01890F80931E0112C06091160170916B
:1011C000170140911401509115014130510511F45E
:1011D000720F01C0621B8D5D9E4F0E94F2078091CD
:1011E00022018F5F80932201082E000C990BE09161
:1011F0001A01F0911B01218130E0281739073CF4D6
:101200001092220180911E018F5F80931E010C9429
:10121000E704CF93DF93C2E1D1E09B878A870E94E6
:10122000030584E190E09F838E83DF91CF910C943E
:101230006D07CF93DF9300D000D0CDB7DEB7582F26
:10124000FB018091E5019091E601A091E701B09149
:10125000E80189839A83AB83BC8330E0A1E0B0E0EE
:10126000AC0FBD1FA30FB11D2C912223B1F0852F10
:10127000622F0E948B0B682F411104C0811102C0A4
:10128000213049F480E3860F8083822F0E94710B06
:10129000581B319641E03F5FE1CF10820F900F90D5
:1012A0000F900F90DF91CF910895CF93DF93CDB73B
:1012B000DEB7CA57D1090FB6F894DEBF0FBECDBF57
:1012C0000E948A040E940F0561E080E00E940705E9
:1012D00042E050E0BE016C587F4F80E090E00E94F9
:1012E0005D04E5968FADE5978F3F31F4E5961FAE2F
:1012F000E597E6961FAEE6974E0180E5880E911CB5
:101300008E0108591F4F3E01E0E76E0E711C180157
:10131000F8E02F0E311C68015301C4010E94D8006F
:10132000F801819391938F01F30111923F01F6E04F
:101330008F0E911C0215130581F7FE01BD96CF019A
:101340008396EA96EFAFEA97EB96FFAFEB97119291
:101350008E179F07E1F760E071E0F60182819381CB
:101360000E947D0066E071E0F601868197810E940F
:101370007D006CE071E0F601848195810E947D0022
:1013800084EF91E00E94090987E491E00E948808B7
:1013900081E090E00E947E0881E090E00E94830856
:1013A0008AE00E9478080E944806EA960FADEA9704
:1013B000EB961FADEB9729E530E047E065E084E66A
:1013C00090E00E948D0160E070E084E690E00E9471
:1013D000B70184EF91E00E94960601E010E0412CF5
:1013E000E7961FAEE797E12C512C0E94AB06033025
:1013F0001105E1F53601F2E06F0E711C45018FEF2A
:10140000881A980AF301819191913F010E949000FE
:10141000F40181934F0162147304A1F7EA968FAC33
:10142000EA97EB969FACEB97612CE9969FAE8EAE58
:10143000E997712CE996EEADFFADE9978191E996B8
:10144000FFAFEEAFE997F501E80FF11D6081872D41
:10145000962D0E94C3067394F5E07F12EBCF85E0D2
:10146000880E911C6394E7E06E12DFCF0E948D0816
:10147000E394F4E0FE1508F0B7C00230110509F45A
:1014800059C048F40130110509F0ADC086EF91E074
:101490000E9469084CC00330110521F00430110589
:1014A000E1F1A1C00E94BE0181119DC06BEE71E00F
:1014B000CE0101960E945E0C8E010F5F1F4F9801B6
:1014C0002F5F3F4FF8018081882311F08901F7CF0A
:1014D0000E94570440E0B8010E941909F8010F5F0B
:1014E0001F4F80818111FACF8FE281938F010E947B
:1014F0005A0440E0B8010E9419090E946D07CE010C
:1015000001960E94690861E080E00E94070504E0FE
:1015100010E0E7961FAEE79766C0E796EFADE79756
:10152000EF5FE796EFAFE797E83C08F45CC005E0B3
:1015300010E059C00E946D07E6968FADE6978F5F69
:10154000E6968FAFE697E5968FADE5978330F1F09D
:1015500028F4813069F0823099F004C08430E1F0E1
:10156000853009F1E894F0F8E894F1F814E006C049
:10157000E894F0F8FFEFF0FBF1F813E083E01AC015
:101580008FEF80FBF0F8E894F1F8F7CFEFEFE0FB96
:10159000F0F8E0FBF1F8F1CFFFEFF0FBF0F8F0FB33
:1015A000F1F813E006C08FEF80FBF0F880FBF1F854
:1015B00012E084E00E947E01812F0E947B018F2D2A
:1015C0000E948A010E94E50342E050E0BE016C588F
:1015D0007F4F80E090E00E94730460E080E00E9412
:1015E000070503E010E0E12C5394E4E0E51508F072
:1015F000FCCE0E94DC0581E00E94CA05882339F0F8
:101600004394F3E6F41520F401E010E001C0412C0E
:1016100081E00E94AA058823D1F003301105A9F0CA
:1016200006301105A1F4E5968FADE597843020F4DE
:101630008F5FE5968FAFE597BE016F5F7F4FE596B1
:101640008FADE5970E94650002C00E94AC0383E065
:101650000E94AA058823D1F003301105A9F00630B5
:101660001105A1F4E5968FADE597823020F0815009
:10167000E5968FAFE597BE016F5F7F4FE5968FAD23
:10168000E5970E94650002C00E94AF0383E00E94BC
:10169000AA05882369F00530110551F4BE016F5F7A
:1016A0007F4FE5968FADE5970E94650006E010E05C
:1016B00084E00E94AA05882309F496CE053011051E
:1016C00019F402E010E090CE0630110539F0033035
:1016D000110509F089CE0E94B20386CE05E010E024
:1016E00083CE002480FD060E660F11F08695D1F79B
:1016F000802D08950024552704C0080E591F880F17
:10170000991F009729F076956795B8F37105B9F799
:10171000802D952F0895991B79E004C0991F961785
:1017200008F0961B881F7A95C9F780950895AA1B23
:10173000BB1B51E107C0AA1FBB1FA617B70710F0BC
:10174000A61BB70B881F991F5A95A9F780959095EE
:10175000BC01CD01089597FB072E16F4009407D025
:1017600077FD09D00E94970B07FC05D03EF49095B9
:1017700081959F4F0895709561957F4F0895052E2F
:1017800097FB1EF400940E94D60B57FD07D00E94D1
:10179000DE0B07FC03D04EF40C94D60B509540950D
:1017A000309521953F4F4F4F5F4F0895909580950D
:1017B000709561957F4F8F4F9F4F0895A1E21A2E2C
:1017C000AA1BBB1BFD010DC0AA1FBB1FEE1FFF1FE5
:1017D000A217B307E407F50720F0A21BB30BE40B35
:1017E000F50B661F771F881F991F1A9469F760957C
:1017F0007095809590959B01AC01BD01CF01089536
:101800008F929F92AF92BF92CF92DF92EF92FF9210
:10181000CF93DF93EC01688179818A819B81611587
:1018200071058105910521F464E279ED8BE597E07E
:101830002DE133EF41E050E00E94BF0B49015A0116
:1018400027EA31E440E050E00E94740C6B017C0117
:101850002CEE34EF4FEF5FEFC501B4010E94740C22
:10186000DC01CB018C0D9D1DAE1DBF1DB7FF03C05C
:101870000197A109B04888839983AA83BB839F7786
:10188000DF91CF91FF90EF90DF90CF90BF90AF901E
:101890009F908F9008950E94000C089583E491E03A
:1018A0000E94000C0895A0E0B0E080934301909363
:1018B0004401A0934501B09346010895FB01DC016A
:1018C00001900D920020E1F70895FB01DC014150E9
:1018D000504048F001900D920020C9F701C01D92C0
:1018E00041505040E0F70895EE27FF27AA27BB2775
:1018F00008C0A20FB31FE41FF51F220F331F441FA0
:10190000551F969587957795679598F37040A9F739
:0E191000009799F7BD01CF010895F894FFCF1D
:10191E000505050501010505050501010303030183
:10192E000101000000000000140000000000000093
:10193E000000000000000000000000000000000099
:10194E000000000000000000000000000000000089
:10195E0000000001000000010305203B0200009280
:10196E0020EB737D5FDE3DA552EA7A14004A2222F7
:10197E0029BA2ED0050014C0010020A4126A2B9A99
:10198E0074A372A338ED498F38CE2AA712AA2AAEB5
:10199E0049100410145444380E11152A250000EA7B
:1019AE005BEB3A4F726B3BCF73CF134F7AED5B9776
:1019BE0074247B5D564972FD5B6F5B6F7BEF136F1B
:1019CE007FEF57CE3897246D7B6D2BED5FAD5AAD03
:1019DE0024A7720340008003100380032000400000
:1019EE0020001000080004000200010380034003E1
:1019FE002000800310640A01004C0047414D452031
:101A0E004F564552200053504143455920524541AF
:101A1E0044592056312E36204259204D5048200030
:00000001FF
